S01600007379737469636B2D626C696E6B792E737265634E
S315801000006F00C0006F0000006F0040039702000071
S315801000109382020373905230735000307350303095
S31580100020735020307350403097410000938181B7D0
S3158010003017310200130101396F008018130101F87E
S315801000402322110023242100232631002328410056
S31580100050232A5100232C6100232E71002320810234
S31580100060232291022324A1022326B1022328C1022E
S31580100070232AD102232CE102232EF102232001050B
S315801000802322110523242105232631052328410502
S31580100090232A5105232C6105232E710523208107E0
S315801000A0232291072324A1072326B1072328C107DA
S315801000B0232AD107232CE107232EF1077325203419
S315801000C0F325103413060100EF00803973101534B0
S315801000D0B72200009382028073A0023083204100F1
S315801000E0032181008321C100032201018322410162
S315801000F0032381018323C101032401028324410246
S31580100100032581028325C102032601038326410329
S31580100110032781038327C10303280104832841040D
S31580100120032981048329C104032A0105832A4105F1
S31580100130032B8105832BC105032C0106832C4106D5
S31580100140032D8106832DC106032E0107832E4107B9
S31580100150032F8107832FC1071301010873002030F5
S31580100160130101FE232E8100130401022326A4FE0F
S315801001702324B4FE2322C4FE6F00C0028327C4FE4C
S3158010018003A70700832784FE23A0E7008327C4FEE6
S31580100190938747002326F4FE832784FE93874700A0
S315801001A02324F4FE032784FE832744FEE3F8E7FC2A
S315801001B0130000000324C1011301010267800000AF
S315801001C0130101FE232E1100232C8100130401023A
S315801001D0B73710801386C73BB73710809385073A99
S315801001E0B73710801385073AEFF09FF7B73710802F
S315801001F01386073AB7371080938587F7B7371080FD
S31580100200138587F7EFF0DFF5930610001306C0020B
S31580100210B7150070B737128013854740EF005064CA
S31580100220B7271080938787562326F4FE8327C4FE2C
S315801002302320F4FE232204FE232404FE930704FEC7
S315801002409385070013051000EF2000029307050021
S3158010025013850700EF20800C130101FE232E8100E9
S3158010026013040102B717000093870780F3B747304E
S315801002702326F4FEF37704302324F4FE13000000C3
S315801002800324C1011301010267800000130101FEDE
S31580100290232E810013040102B7170000938707806D
S315801002A0F3A747302326F4FEF36704302324F4FEA5
S315801002B0130000000324C1011301010267800000AE
S315801002C0130101FD23261102232481021304010345
S315801002D0232EA4FC930710002326F4FE0327C4FDC7
S315801002E093074006B357F70213860700930600005C
S315801002F0B737128023A0C73C23A2D73CB7371280CA
S3158010030003A6073C83A6473C93070600B3E7D700AE
S3158010031063840708F32740F12324F4FE832784FEA1
S315801003202322F4FE37070044B7060044B7C70000FF
S31580100330B387F60003A887FF83A8C7FFB737128055
S3158010034003A5073C83A5473C3306A800B3370601AF
S31580100350B386B800B387D7009386070013050600C7
S3158010036093850600832644FEB7170000938707807F
S31580100370B387F60093973700B307F70023A0A7003B
S3158010038023A2B70093070008F3A747302320F4FE73
S31580100390EFF0DFEF232604FE8327C4FE13850700C4
S315801003A08320C102032481021301010367800000A8
S315801003B0130101FE232E1100232C81001304010248
S315801003C0F32740F12326F4FE8327C4FE2324F4FE6C
S315801003D093070008F3B747302322F4FE370700440B
S315801003E0B7060044B7C70000B387F60003A887FF97
S315801003F083A8C7FFB737128003A5073C83A5473C60
S315801004003306A800B3370601B386B800B387D70082
S31580100410938607001305060093850600832684FEBF
S31580100420B717000093870780B387F6009397370036
S31580100430B307F70023A0A70023A2B700EF105059E7
S3158010044093070008F3A747302320F4FE130000001B
S315801004508320C101032481011301010267800000FA
S31580100460130101FE232E1100232C81001304010297
S315801004702326A4FE2324B4FE8327C4FE63D2070258
S315801004800327C4FEB707008093C7F7FF3377F700BB
S315801004909307B0006316F700EF00C0066F000005E3
S315801004A08327C4FE63D207020327C4FEB7070080E2
S315801004B093C7F7FF3377F700930770006316F7003B
S315801004C0EFF01FEF6F00800213065000B7271080E1
S315801004D09385075713051000EF00C0628327C4FE6B
S315801004E09387170013850700EF008012832784FEF9
S315801004F0138507008320C1010324810113010102A2
S3158010050067800000130101FF232611002324810038
S31580100510130401011305A000EF00800F130101FFE2
S315801005202326810013040101130000000324C10057
S315801005301301010167800000130101FD23261102BA
S315801005402324810213040103232EA4FC232CB4FC40
S3158010055013062000B7271080938587570325C4FD7F
S31580100560EF00405A93078000A307F4FE6F008008BF
S315801005708347F4FE9387F7FF2307F4FE8347E4FE51
S31580100580939727001307F000B317F7001387070018
S31580100590832784FD3377F7008347E4FE93972700FC
S315801005A0B357F700A306F4FE0347D4FE93079000D3
S315801005B063EAE7008347D4FE9387070393F7F70F21
S315801005C06F0000018347D4FE9387770393F7F70F65
S315801005D02306F4FE9307C4FE1306100093850700C6
S315801005E00325C4FDEF0000528347F4FE9387F7FF7F
S315801005F0A307F4FE8347F4FEE39C07F6130000007E
S315801006008320C10203248102130101036780000045
S31580100610130101FD232611022324810213040103F1
S31580100620232EA4FCB72710809387C7572326F4FE62
S315801006300325C4FEEF10D0519307050013860700DB
S315801006408325C4FE13052000EF00C04B8327C4FD0D
S315801006509385070013052000EFF01FEE6F00000052
S31580100660130101FE232E8100130401022326A4FE0A
S31580100670B737108003A7873A8327C4FE3307F7005E
S31580100680B7371280938787496360F702B737108030
S3158010069003A7873A8327C4FE3307F700B73712803C
S315801006A09387874963F6E7009307F0FF6F0000038F
S315801006B0B737108003A7873A8327C4FE3307F7001E
S315801006C0B737108023A4E73AB737108003A7873A45
S315801006D08327C4FEB307F040B307F70013850700DE
S315801006E00324C1011301010267800000130101FE7A
S315801006F0232E8100130401022326A4FEB73712800D
S315801007000327C4FE23A0E7409307F0FF1385070055
S315801007100324C1011301010267800000130101FE49
S31580100720232E1100232C8100130401022326A4FEFC
S315801007302324B4FE2322C4FE13052000EFF01FFBF2
S3158010074093070500138507008320C10103248101C7
S315801007501301010267800000130101FE232E110090
S31580100760232C8100130401022326A4FE2324B4FE25
S315801007702322C4FE2320D4FE13052000EFF01FF79A
S3158010078093070500138507008320C1010324810187
S315801007901301010267800000130101FE232E110050
S315801007A0232C8100130401022326A4FE1305900036
S315801007B0EFF0DFF393070500138507008320C1014F
S315801007C0032481011301010267800000130101FED9
S315801007D0232E1100232C8100130401022326A4FE4C
S315801007E02324B4FE2322C4FE1305C000EFF01FF0AD
S315801007F093070500138507008320C1010324810117
S315801008001301010267800000130101FF23261100E6
S3158010081023248100130401011305B000EFF01FEDAE
S3158010082093070500138507008320C10003248100E8
S315801008301301010167800000130101FE232E1100B0
S31580100840232C8100130401022326A4FE2324B4FE44
S315801008500325C4FEEF00000693070500638C07008E
S31580100860832784FE3727000023A8E700930700001C
S315801008706F00000113059000EFF05FE79307050006
S31580100880138507008320C10103248101130101020E
S3158010089067800000130101FF2326810013040101E4
S315801008A093071000138507000324C100130101016B
S315801008B067800000130101FE232E810013040102BC
S315801008C02326A4FE0327C4FE930710006308F700AF
S315801008D00327C4FE930720006316F70093071000C2
S315801008E06F004001B73712801307900023A0E740AE
S315801008F093070000138507000324C1011301010229
S3158010090067800000130101FE232E1100232C810025
S31580100910130401022326A4FE2324B4FE13056001CA
S31580100920EFF0DFDC93070500138507008320C101F4
S31580100930032481011301010267800000130101FE67
S31580100940232E1100232C8100130401022326A4FEDA
S315801009502324B4FE1305F001EFF05FD99307050049
S31580100960138507008320C10103248101130101022D
S3158010097067800000130101FE232E1100232C8100B5
S31580100980130401022326A4FE2324B4FE2322C4FECC
S315801009900325C4FEEFF01FF2930705006386070058
S315801009A0930700006F00000113059000EFF01FD42D
S315801009B093070500138507008320C1010324810155
S315801009C01301010267800000130101FE232E11001E
S315801009D0232C8100130401022326A4FE2324B4FEB3
S315801009E02322C4FE0325C4FEEFF0DFEC9307050037
S315801009F063800702032644FE832584FEB737128060
S31580100A0013854740EF009010930705006F00000193
S31580100A1013059000EFF09FCD93070500138507000F
S31580100A208320C10103248101130101026780000024
S31580100A30130101FE232E1100232C810013040102C1
S31580100A402326A4FE2324B4FE1305D000EFF01FCA7C
S31580100A5093070500138507008320C10103248101B4
S31580100A601301010267800000130101FE232E11007D
S31580100A70232C8100130401022326A4FE1305D00023
S31580100A80EFF0DFC693070500138507008320C101A9
S31580100A90032481011301010267800000130101FE06
S31580100AA0232E1100232C8100130401022326A4FE79
S31580100AB013052000EFF09FC39307050013850700E9
S31580100AC08320C10103248101130101026780000084
S31580100AD0130101FE232E1100232C81001304010221
S31580100AE02326A4FE1305A000EFF05FC09307050030
S31580100AF0138507008320C10103248101130101029C
S31580100B0067800000130101FD232611022324810230
S31580100B1013040103232EA4FC232CB4FC232AC4FC27
S31580100B20832784FD2324F4FE0325C4FDEFF09FD88C
S31580100B3093070500638E0706232604FE6F000006C2
S31580100B40032784FE8327C4FEB307F700130610001D
S31580100B5093850700B737128013854740EF000062F0
S31580100B60032784FE8327C4FEB307F70003C7070055
S31580100B709307A000631EF70013061000B727108096
S31580100B809385C759B737128013854740EF00005FAA
S31580100B908327C4FE938717002326F4FE0327C4FEFB
S31580100BA0832744FDE36EF7F8832744FD6F00000129
S31580100BB013059000EFF09FB3930705001385070088
S31580100BC08320C10203248102130101036780000080
S31580100BD0130101FF23261100232481001304010130
S31580100BE0EFF0CFEA130000008320C10003248100B8
S31580100BF01301010167800000130101FE232E1100ED
S31580100C00232C810013040102F32700302326F4FEDF
S31580100C108327C4FE2324F4FEEFF00FE4832784FE9B
S31580100C20138507008320C10103248101130101026A
S31580100C3067800000130101FE232E81001304010238
S31580100C402326A4FE8327C4FE73900730130000006A
S31580100C500324C1011301010267800000130101FD05
S31580100C602326810213040103232EA4FC232CB4FC17
S31580100C708327C4FD2326F4FE8327C4FE032784FD21
S31580100C8023A0E700130000000324C102130101030F
S31580100C9067800000130101FD2326810213040103DE
S31580100CA0232EA4FC8327C4FD2326F4FE8327C4FEAB
S31580100CB083A70700138507000324C10213010103CC
S31580100CC067800000130101FD2326810213040103AE
S31580100CD0232EA4FC232CB4FC232AC4FC2328D4FC66
S31580100CE08327C4FD2326F4FE8327C4FE83A707002B
S31580100CF02324F4FE032704FD832784FDB317F7000E
S31580100D002322F4FE032744FE832744FD3377F7001E
S31580100D10832744FD93C6F7FF832784FEB3F7F60037
S31580100D203367F7008327C4FE23A0E7001300000073
S31580100D300324C1021301010367800000130101FD22
S31580100D402326810213040103232EA4FC232CB4FC36
S31580100D50232AC4FC8327C4FD2326F4FE8327C4FEDE
S31580100D6003A70700832744FD3377F700832784FD85
S31580100D70B357F7002324F4FE832784FE13850700D8
S31580100D800324C1021301010367800000130101FDD2
S31580100D902326810213040103232EA4FC232CB4FCE6
S31580100DA08327C4FD2326F4FE832784FD139707012A
S31580100DB0135707018327C4FE2390E7001300000012
S31580100DC00324C1021301010367800000130101FD92
S31580100DD02326810213040103232EA4FC8327C4FD3A
S31580100DE02326F4FE8327C4FE83D707009397070133
S31580100DF093D70701138507000324C102130101034A
S31580100E0067800000130101FD23268102130401036C
S31580100E10232EA4FC232CB4FC232AC4FC2328D4FC24
S31580100E208327C4FD2326F4FE8327C4FE83D70700B9
S31580100E302315F4FE032704FD832784FDB317F700DB
S31580100E402314F4FE832744FD1397070113570701D4
S31580100E50835784FEB377F70013970701135707015B
S31580100E60832744FD9397070193D7070193C7F7FF0D
S31580100E709396070193D606018357A4FEB3F7F6001F
S31580100E809397070193D70701B367F7001397070165
S31580100E90135707018327C4FE2390E7001300000031
S31580100EA00324C1021301010367800000130101FDB1
S31580100EB02326810213040103232EA4FC232CB4FCC5
S31580100EC0232AC4FC8327C4FD2326F4FE8327C4FE6D
S31580100ED083D707009397070193D7070113870700D6
S31580100EE0832744FD3377F700832784FDB357F700B4
S31580100EF02315F4FE8357A4FE138507000324C1022D
S31580100F001301010367800000130101FD232681026E
S31580100F1013040103232EA4FC232CB4FC8327C4FDC5
S31580100F202326F4FE832784FD13F7F70F8327C4FE49
S31580100F302380E700130000000324C102130101037C
S31580100F4067800000130101FD23268102130401032B
S31580100F50232EA4FC8327C4FD2326F4FE8327C4FEF8
S31580100F6083C7070093F7F70F138507000324C10281
S31580100F701301010367800000130101FD23268102FE
S31580100F8013040103232EA4FC232CB4FC232AC4FCB3
S31580100F902328D4FC8327C4FD2326F4FE8327C4FE8E
S31580100FA083C70700A305F4FE032704FD832784FD6A
S31580100FB0B317F7002305F4FE832744FD13F7F70FC5
S31580100FC08347A4FEB377F70013F7F70F832744FD03
S31580100FD093F7F70F93C7F7FF93F6F70F8347B4FE90
S31580100FE0B3F7F60093F7F70FB367F70013F7F70F1A
S31580100FF08327C4FE2380E700130000000324C10268
S315801010001301010367800000130101FD232681026D
S3158010101013040103232EA4FC232CB4FC232AC4FC22
S315801010208327C4FD2326F4FE8327C4FE83C70700C7
S3158010103093F7F70F13870700832744FD3377F7005D
S31580101040832784FDB357F700A305F4FE8347B4FEC8
S31580101050138507000324C102130101036780000072
S31580101060130101FD23261102232481021304010397
S31580101070232EA4FC232CB4FC1307060093870600AA
S31580101080231BE4FCA30AF4FC8327C4FD638E070CA0
S31580101090034754FD9307700063E8E70C035764FD1C
S315801010A0B72700006372F70C832784FD13878700A8
S315801010B0835764FD93F7F70F938507001305070091
S315801010C0EFF09FE4832784FD9386C700034754FD82
S315801010D0835764FD93D7574093F7877FB367F7009D
S315801010E09385070013850600EFF01FE28327C4FD62
S315801010F0032784FD23A0E7008327C4FD83A7070069
S315801011009387070113850700EFF0DFE39307050048
S3158010111093F72700A307F4FE6F0000048327C4FD0E
S3158010112083A707009387470013850700EFF09FE199
S31580101130930705002307F4FE8327C4FD83A70700C2
S315801011409387070113850700EFF0DFDF930705000C
S3158010115093F72700A307F4FE8347F4FEE39007FC7A
S315801011608327C4FD23820700130000008320C10259
S31580101170032481021301010367800000130101FD1E
S31580101180232611022324810213040103232EA4FC97
S31580101190232CB4FC232AC4FC8327C4FD6380070850
S315801011A0832784FD638C0706832744FD638807069F
S315801011B0232604FE6F00C0058327C4FD83A707007E
S315801011C09387070113850700EFF0DFD79307050094
S315801011D093F71700A305F4FE8347B4FEE38E07FC4E
S315801011E08327C4FD83A60700032784FD8327C4FEB7
S315801011F0B307F70083C7070093850700138506009A
S31580101200EFF09FD08327C4FE938717002326F4FE22
S315801012100327C4FE832744FDE360F7FA130000001A
S315801012208320C10203248102130101036780000019
S31580101230130101FD232611022324810213040103C5
S31580101240232EA4FC232CB4FC232AC4FC232604FEC0
S315801012508327C4FD6380070A832784FD638C070870
S31580101260832744FD638807088327C4FD83A7070067
S315801012709387070113850700EFF0DFCC93070500EE
S3158010128093F71700A305F4FE8347B4FE638407061D
S315801012908327C4FD83A60700032784FD8327C4FE06
S315801012A0B307F70083C707009385070013850600E9
S315801012B0EFF09FC58327C4FE938717002326F4FE7D
S315801012C08327C4FD83A7070093870701138507002B
S315801012D0EFF05FC79307050093F71700A305F4FE99
S315801012E08347B4FE638807000327C4FE832744FD23
S315801012F0E360F7FA8327C4FE138507008320C102B3
S31580101300032481021301010367800000130101FD8C
S31580101310232611022324810223229102130401031E
S31580101320232EA4FC232CB4FC232AC4FC232404FEE1
S315801013308327C4FD6386070E832784FD6382070E89
S31580101340832744FD638E070C232404FE8327C4FD64
S3158010135083A707009387070113850700EFF09FBEC9
S3158010136093070500A303F4FE8327C4FD03C7470034
S31580101370834774FEB367F70013F7F70F8327C4FD0F
S315801013802382E700834774FE93F72700A307F4FEB2
S315801013906F00C007032784FD832784FEB304F700FC
S315801013A08327C4FD83A7070093874700138507000B
S315801013B0EFF05FB9930705002380F400832784FE3E
S315801013C0938717002324F4FE8327C4FD83A7070081
S315801013D09387070113850700EFF0DFB693070500A3
S315801013E0A303F4FE8327C4FD03C74700834774FE17
S315801013F0B367F70013F7F70F8327C4FD2382E7003F
S31580101400834774FE93F72700A307F4FE8347F4FE01
S3158010141063880700032784FE832744FDE36CF7F671
S31580101420832784FE138507008320C102032481024B
S31580101430832441021301010367800000130101FD1B
S31580101440232611022324810213040103232EA4FCD4
S31580101450232CB4FC8327C4FD63800708832784FD6F
S31580101460638C0706232604FE6F00C0058327C4FD00
S3158010147083A707009387070113850700EFF09FACBA
S315801014809307050093F71700A305F4FE8347B4FE70
S31580101490E38E07FC8327C4FD83A60700032784FDFC
S315801014A08327C4FEB307F70083C707009385070019
S315801014B013850600EFF05FA58327C4FE9387170078
S315801014C02326F4FE032784FD8327C4FEB307F70083
S315801014D083C70700E39C07F8130000008320C1022E
S315801014E0032481021301010367800000130101FDAB
S315801014F02326810213040103232EA4FC9307F0FFF5
S31580101500A307F4FE8327C4FD638207028327C4FDE5
S3158010151083C7470093D7274093F7F70F93F7770042
S31580101520A307F4FE8327C4FD238207008347F4FEB6
S31580101530138507000324C10213010103678000008D
S31580101540130101FD232611022324810213040103B2
S31580101550232EA4FC232CB4FC232AC4FCA30704FE4C
S31580101560832784FD2324F4FE8327C4FD032784FD6B
S3158010157023A0E7008327C4FD032744FD23A2E700A9
S31580101580A30704FE832784FD2324F4FE6F008002C4
S3158010159093050000032584FEEFF01F97832784FEB2
S315801015A0938747002324F4FE8347F4FE938717001E
S315801015B0A307F4FE0347F4FE9307F001E3FAE7FC72
S315801015C08327C4FD83A7470013071000638AE702A9
S315801015D01307100063E4E706130720006384E7000F
S315801015E06F00000C8327C4FD83A707009387070825
S315801015F09305F0FF13850700EFF04FE66F00400A62
S315801016008327C4FD83A7070013870708B707010040
S315801016109385F7FF13050700EFF04FF78327C4FD77
S3158010162083A7070013874708B70701009385F7FF3D
S3158010163013050700EFF08FF56F0080068327C4FD32
S3158010164083A70700938707089305F00F1385070074
S31580101650EFF09F8B8327C4FD83A7070093874708E6
S315801016609305F00F13850700EFF01F8A8327C4FDBB
S3158010167083A70700938787089305F00F13850700C4
S31580101680EFF09F888327C4FD83A707009387C70839
S315801016909305F00F13850700EFF01F8713000000E6
S315801016A0130000008320C102032481021301010369
S315801016B067800000130101FD232611022324810275
S315801016C013040103232EA4FC232CB4FC232AC4FC6C
S315801016D0032784FD9307F00163E8E7028327C4FD9F
S315801016E083A707002326F4FE832784FD939727007C
S315801016F00327C4FEB307F7002326F4FE832544FD93
S315801017000325C4FEEFF08FD5130000008320C1029D
S31580101710032481021301010367800000130101FE77
S31580101720232E1100232C8100130401022326A4FEEC
S315801017302324B4FE8327C4FE83A747001307100013
S31580101740638AE7021307100063EEE706130720008B
S315801017506384E7006F0000108327C4FE83A7070009
S315801017609387070A832584FE13850700EFF00FCF32
S315801017706F00400E8327C4FE83A707009387070A4E
S31580101780032784FE131707011357070193050700D4
S3158010179013850700EFF08FDF8327C4FE83A707002A
S315801017A01387470A832784FE93D7070193970701E8
S315801017B093D707019385070013050700EFF00FDD18
S315801017C06F0040098327C4FE83A707009387070A03
S315801017D0032784FE1377F70F9305070013850700F9
S315801017E0EFF08FF28327C4FE83A707001387470A7B
S315801017F0832784FE93D7870093F7F70F9385070087
S3158010180013050700EFF04FF08327C4FE83A7070068
S315801018101387870A832784FE93D7070193F7F70FD9
S315801018209385070013050700EFF00FEE8327C4FE9C
S3158010183083A707001387C70A832784FE93D7870158
S3158010184093F7F70F9385070013050700EFF0CFEB9B
S3158010185013000000130000008320C10103248101BE
S315801018601301010267800000130101FD2326110276
S315801018702324810213040103232EA4FC232604FEB1
S315801018808327C4FD83A7470013071000638AE702E6
S315801018901307100063E2E708130720006384E7004C
S315801018A06F0080128327C4FD83A7070093870709DB
S315801018B013850700EFF00FBE2326A4FE6F00C0101D
S315801018C08327C4FD83A7070093870709138507001D
S315801018D0EFF0CFCF93070500138707008327C4FE49
S315801018E0B3E7E7002326F4FE8327C4FD83A707000A
S315801018F09387470913850700EFF04FCD93070500AF
S3158010190093970701138707008327C4FEB3E7E70081
S315801019102326F4FE6F00400B8327C4FD83A70700A0
S315801019209387070913850700EFF0CFE1930705002A
S31580101930138707008327C4FEB3E7E7002326F4FE48
S315801019408327C4FD83A7070093874709138507005C
S31580101950EFF04FDF930705009397870013870700F3
S315801019608327C4FEB3E7E7002326F4FE8327C4FD4E
S3158010197083A707009387870913850700EFF08FDC0D
S315801019809307050093970701138707008327C4FEE3
S31580101990B3E7E7002326F4FE8327C4FD83A7070059
S315801019A09387C70913850700EFF0CFD993070500F2
S315801019B093978701138707008327C4FEB3E7E70051
S315801019C02326F4FE130000008327C4FE1385070028
S315801019D08320C10203248102130101036780000062
S315801019E0130101FD2326110223248102130401030E
S315801019F0232EA4FC232604FE8327C4FD83A7470039
S31580101A0013071000638AE7021307100063E2E708E2
S31580101A10130720006384E7006F0080128327C4FDBC
S31580101A2083A707009387070A13850700EFF08FA611
S31580101A302326A4FE6F00C0108327C4FD83A707004A
S31580101A409387070A13850700EFF04FB893070500B1
S31580101A50138707008327C4FEB3E7E7002326F4FE27
S31580101A608327C4FD83A707009387470A138507003A
S31580101A70EFF0CFB5930705009397070113870700FB
S31580101A808327C4FEB3E7E7002326F4FE6F00400BDE
S31580101A908327C4FD83A707009387070A138507004A
S31580101AA0EFF0CFB293070500138707008327C4FE94
S31580101AB0B3E7E7002326F4FE8327C4FD83A7070038
S31580101AC09387470A13850700EFF04FB093070500F9
S31580101AD093978700138707008327C4FEB3E7E70031
S31580101AE02326F4FE8327C4FD83A707009387870ADE
S31580101AF013850700EFF08FAD9307050093970701C5
S31580101B00138707008327C4FEB3E7E7002326F4FE76
S31580101B108327C4FD83A707009387C70A1385070009
S31580101B20EFF0CFAA930705009397870113870700D5
S31580101B308327C4FEB3E7E7002326F4FE13000000D4
S31580101B408327C4FE138507008320C10203248102E4
S31580101B501301010367800000130101FD2326110282
S31580101B602324810213040103232EA4FC232CB4FC0A
S31580101B7093070600A30BF4FC8327C4FD83A74700B5
S31580101B8013071000638AE7081307100063E0E71451
S31580101B90130720006384E7006F00801E8327C4FD2F
S31580101BA083A707009387070A13850700EFF08F8EA8
S31580101BB02326A4FE834774FD63940702130710003F
S31580101BC0832784FDB317F70093C7F7FF13870700A2
S31580101BD08327C4FEB3F7E7002326F4FE6F000002C6
S31580101BE013071000832784FDB317F70013870700A8
S31580101BF08327C4FEB3E7E7002326F4FE8327C4FDBC
S31580101C0083A707009387070A8325C4FE13850700D9
S31580101C10EFF0CF846F00C0168327C4FD03A707009B
S31580101C20832784FD93D7470093972700B307F70040
S31580101C309387070A2322F4FE032544FEEFF00F99BB
S31580101C40930705002315F4FE834774FD63900704FC
S31580101C50832784FD93F7F70013071000B317F70057
S31580101C609397070193D7074193C7F7FF13970701F8
S31580101C70135707418317A4FEB377F700939707018D
S31580101C8093D707412315F4FE6F000003832784FD45
S31580101C9093F7F70013071000B317F7001397070190
S31580101CA0135707418317A4FEB367F700939707016D
S31580101CB093D707412315F4FE8357A4FE9385070017
S31580101CC0032544FEEFF08F8C6F00800B8327C4FDB5
S31580101CD003A70700832784FD93D7370093972700A0
S31580101CE0B307F7009387070A2320F4FE032504FE23
S31580101CF0EFF04FA593070500A304F4FE834774FD08
S31580101D0063900704832784FD93F7770013071000E9
S31580101D10B317F7009397870193D7874193C7F7FF38
S31580101D201397870113578741830794FEB377F7007C
S31580101D309397870193D78741A304F4FE6F0000031E
S31580101D40832784FD93F7770013071000B317F700E6
S31580101D501397870113578741830794FEB367F7005C
S31580101D609397870193D78741A304F4FE834794FE04
S31580101D7093850700032504FEEFF00F9913000000EA
S31580101D80130000008320C102032481021301010382
S31580101D9067800000130101FD23261102232481028E
S31580101DA013040103232EA4FC232CB4FC232AC4FC85
S31580101DB08327C4FD83A707002326F4FE832744FDCB
S31580101DC013071000638CE7001307100063E2E70621
S31580101DD0130720006388E70A6F00000F13061000B0
S31580101DE0832584FD0325C4FDEFF01FD78327C4FD0B
S31580101DF003A70700832784FD93972700B307F7006F
S31580101E002326F4FE0325C4FEEFF0CF939307050037
S31580101E102324F4FE832784FE93E747002324F4FECD
S31580101E20832584FE0325C4FEEFF00F8E6F00C00954
S31580101E3013060000832584FD0325C4FDEFF0DFD152
S31580101E408327C4FD03A70700832784FD9397270064
S31580101E50B307F7002326F4FE0325C4FEEFF08F8E1A
S31580101E60930705002324F4FE832784FE93E7470017
S31580101E702324F4FE832584FE0325C4FEEFF0CF8849
S31580101E806F0080048327C4FD03A70700832784FD82
S31580101E9093972700B307F7002326F4FE0325C4FE85
S31580101EA0EFF04F8A930705002324F4FE832784FEE0
S31580101EB093F7B7FF2324F4FE832584FE0325C4FEFF
S31580101EC0EFF08F8413000000130000008320C102FE
S31580101ED0032481021301010367800000130101FDB1
S31580101EE0232611022324810213040103232EA4FC2A
S31580101EF0232CB4FC8327C4FD83A707002326F4FE76
S31580101F00032784FD9307F00163E0E704832784FDAC
S31580101F10939727000327C4FEB307F7002326F4FE02
S31580101F200325C4FEEFF00F82930705002324F4FEE9
S31580101F30832784FE93E787002324F4FE832584FE7B
S31580101F400325C4FEEFE05FFC130000008320C1026E
S31580101F50032481021301010367800000130101FD30
S31580101F60232611022324810213040103232EA4FCA9
S31580101F70232CB4FC8327C4FD83A707002326F4FEF5
S31580101F80032784FD9307F00163E0E704832784FD2C
S31580101F90939727000327C4FEB307F7002326F4FE82
S31580101FA00325C4FEEFE01FFA930705002324F4FEF1
S31580101FB0832784FE93F777FF2324F4FE832584FEFC
S31580101FC00325C4FEEFE05FF4130000008320C102F6
S31580101FD0032481021301010367800000130101FDB0
S31580101FE0232611022324810213040103232EA4FC29
S31580101FF0232CB4FC13071000832784FDB317F70036
S315801020002326F4FE8327C4FD83A7470013071000F9
S31580102010638AE7021307100063E4E70613072000BC
S315801020206384E7006F00800D8327C4FD83A70700B4
S31580102030938707088325C4FE13850700EFE01FC228
S315801020406F00C00B8327C4FD83A7070093870708FB
S315801020508325C4FE13850700EFE05FD38327C4FD75
S3158010206083A70700138747088327C4FE93D70701E2
S315801020709385070013050700EFE05FD16F00000816
S315801020808327C4FD83A70700938707088325C4FE8B
S3158010209013850700EFE05FE78327C4FD83A707005A
S315801020A0138747088327C4FE93D787009385070035
S315801020B013050700EFE05FE58327C4FD83A70700BC
S315801020C0138787088327C4FE93D707019385070054
S315801020D013050700EFE05FE38327C4FD83A707009E
S315801020E01387C7088327C4FE93D787019385070074
S315801020F013050700EFE05FE11300000013000000F6
S315801021008320C1020324810213010103678000002A
S31580102110130101FE232E810013040102F32740F1DF
S315801021202324F4FE832784FE2322F4FE232604FE32
S315801021306F00C00337070040832744FE93965700ED
S315801021408327C4FEB386F600B717000093870780EF
S31580102150B387F60093972700B307F70023A00700ED
S315801021608327C4FE938717002326F4FE8327C4FE95
S31580102170E38207FC232604FE6F00400237070040E7
S315801021808327C4FE93972700B307F70023A207007F
S315801021908327C4FE938717002326F4FE0327C4FEE5
S315801021A09307E001E3FCE7FC37070040832744FEF2
S315801021B0938727219397C700B307F70023A00700BB
S315801021C0130000000324C10113010102678000007F
S315801021D0130101FE232E1100232C8100130401020A
S315801021E0B737128013850749EFF00FE82326A4FE30
S315801021F08327C4FE93C7F7FF93F7070F2324F4FEB4
S31580102200B737108083A7073B13971700B73710800F
S3158010221023A8E73AB737108003A7073B93074000F8
S3158010222063F8E700B73710801307100023A8E73A42
S31580102230B737108083A7073B032784FEB367F70061
S315801022402324F4FE832584FEB737128013858748AE
S31580102250EFF0CFCC130000008320C101032481014D
S315801022601301010267800000130101FD232611026C
S315801022702324810213040103232EA4FC232CB4FCF3
S31580102280EFF01FE913062000B7250070B7371280CC
S3158010229013850749EFF0CFAA13062000B7550070B3
S315801022A0B737128013858748EFF08FA9B73710801C
S315801022B083A7C73A93850700B7371280138547409F
S315801022C0EFF0CF97B737108083A7073A93D71700C9
S315801022D013850700EFD0DFFE9307E4FE1306100088
S315801022E093850700B737128013854740EFF00F822A
S315801022F093070500A307F4FE8347F4FEE38E07FCDD
S315801023009307E4FE1306100093850700B7371280F3
S3158010231013854740EFE09FE66FF01FFC130101FF26
S315801023209305000023248100232611001304050041
S31580102330EF00800BB737108003A5473B8327C50373
S3158010234063840700E780070013050400EFE04FACB5
S31580102350137735009307050093060500631C070461
S3158010236037867F7F1306F6F79305F0FF9386460030
S3158010237003A7C6FFB377C700B387C7003367C70005
S31580102380B3E7E700E384B7FE03C7C6FFB387A6406B
S3158010239003C6D6FF03C5E6FF63000704630A060279
S315801023A03335A0003305F5001305E5FF678000007F
S315801023B06388060203C707009387170093F63700D2
S315801023C0E31807FEB387A7401385F7FF67800000E1
S315801023D01385D7FF678000001385C7FF67800000CD
S315801023E0938607006FF0DFF7130101FCB737108073
S315801023F0232E710183AB473B23206103370B0000EB
S31580102400232821032324410323225103232C8101D2
S31580102410232A9101232E1102232C8102232A910231
S31580102420232631032328A1012326B101930A05000F
S3158010243013890500138C8B14130A1000930CF0FF6C
S31580102440130B0B0083A98B1463800906930D0C0064
S3158010245003A44900931424001304F4FFB384990051
S31580102460634E04006300090883A74410630CF906C1
S315801024701304F4FF9384C4FFE31694FF63060B02E0
S3158010248083A74900639A070C83A70900638E070008
S315801024901385090023A0FD0017E3EF7FE70083B6BD
S315801024A083A90D00E39609FA8320C10303248103CF
S315801024B083244103032901038329C102032A81024C
S315801024C0832A4102032B0102832BC101032C810134
S315801024D0832C4101032D0101832DC10013010104B9
S315801024E06780000083A7490003A744009387F7FFFE
S315801024F0638A870423A20400E30C07F683A789184E
S31580102500B3168A0003AD4900B3F7F6006388070255
S3158010251083A7C918B3F6F600639A060283A5440802
S3158010252013850A00E700070083A74900E39CA7F1FB
S3158010253083A70D00E38E37F36FF0DFF0E700070017
S315801025406FF09FFE23A289006FF01FFB03A544083E
S31580102550E70007006FF05FFD938D090083A90900DE
S30D80102560E39809EE6FF05FF4B9
S3158010256868656C6C6F000000747261700A000000F8
S31580102578307800000A50726F67616D206861732029
S31580102588657869746564207769746820636F646593
S315801025983A0000000D0000000D0A496E74657272CB
S315801025A875707420426C696E6B79204578616D7090
S30A801025B86C650D0A00A0
S315801025C01000000000000000017A5200017C010119
S315801025D01B0D0200200000001800000084DBFFFFA6
S315801025E06000000000440E20448801440C0800025C
S315801025F04CC8440D020000001C0000003C00000086
S31580102600C0DBFFFF9800000000440E20488101883F
S3158010261002440C08000000001C0000005C00000052
S3158010262038DCFFFF3400000000440E20448801444B
S315801026300C080060C8440D021C0000007C000000DD
S315801026404CDCFFFF3400000000440E204488014417
S315801026500C080060C8440D02240000009C00000095
S3158010266060DCFFFFF000000000440E3048810188D6
S3158010267002440C080002D8C144C8440D0200000070
S3158010268024000000C400000028DDFFFFB000000019
S3158010269000440E204881018802440C08000298C12B
S315801026A044C8440D0200000024000000EC00000025
S315801026B0B0DDFFFFA400000000440E204881018891
S315801026C002440C08000298C144C8440D0200000060
S315801026D01C000000140100002CDEFFFF1800000013
S315801026E000440E104881018802440C080000000046
S315801026F01C0000003401000024DEFFFF1C000000D7
S3158010270000440E10448801440C080048C8440D0249
S31580102710240000005401000020DEFFFFD8000000D6
S3158010272000440E304881018802440C080002C4C15E
S3158010273044C8440D020000001C0000007C0100000B
S31580102740D0DEFFFF5000000000440E304881018823
S3158010275002440C0800000000200000009C010000CC
S3158010276000DFFFFF8C00000000440E2044880144E7
S315801027700C08000278C8440D020000001C000000FE
S31580102780C001000068DFFFFF3000000000440E200B
S31580102790448801440C08005CC8440D0220000000E7
S315801027A0E001000078DFFFFF3C00000000440E20AF
S315801027B04881018802440C080064C144C8440D0253
S315801027C0200000000402000090DFFFFF40000000A0
S315801027D000440E204881018802440C080068C144D8
S315801027E0C8440D022000000028020000ACDFFFFF65
S315801027F03400000000440E204881018802440C08F1
S31580102800005CC144C8440D02200000004C02000048
S31580102810BCDFFFFF3C00000000440E204881018889
S3158010282002440C080064C144C8440D022000000014
S3158010283070020000D4DFFFFF3000000000440E104D
S315801028404881018802440C080058C144C8440D02CE
S315801028502400000094020000E0DFFFFF5C0000000F
S3158010286000440E204881018802440C08000248C1A9
S3158010287044C8440D020000001C000000BC02000089
S3158010288014E0FFFF2000000000440E10448801442D
S315801028900C08004CC8440D021C000000DC0200002D
S315801028A014E0FFFF5000000000440E2044880144CD
S315801028B00C08007CC8440D0220000000FC020000B9
S315801028C044E0FFFF3800000000440E204881018854
S315801028D002440C080060C144C8440D022000000068
S315801028E02003000058E0FFFF3800000000440E204F
S315801028F04881018802440C080060C144C8440D0216
S3158010290024000000440300006CE0FFFF5400000028
S3158010291000440E204881018802440C08000240C100
S3158010292044C8440D02000000240000006C0300001F
S3158010293098E0FFFF6800000000440E20488101885F
S3158010294002440C08000258C144C8440D020000001D
S315801029502000000094030000D8E0FFFF380000003C
S3158010296000440E204881018802440C080060C1444E
S31580102970C8440D0220000000B8030000ECE0FFFF01
S315801029803400000000440E204881018802440C085F
S31580102990005CC144C8440D0220000000DC03000026
S315801029A0FCE0FFFF3400000000440E2048810188BF
S315801029B002440C08005CC144C8440D02200000008B
S315801029C0000400000CE1FFFF3400000000440E20DC
S315801029D04881018802440C08005CC144C8440D0239
S315801029E024000000240400001CE1FFFFCC0000003E
S315801029F000440E304881018802440C080002C0C190
S31580102A0044C8440D02000000200000004C04000061
S31580102A10C0E1FFFF2800000000440E1048810188A5
S31580102A2002440C080050C144C8440D022000000026
S31580102A3070040000C4E1FFFF3C00000000440E203B
S31580102A404881018802440C080064C144C8440D02C0
S31580102A501C00000094040000DCE1FFFF2800000049
S31580102A6000440E20448801440C080054C8440D02CA
S31580102A701C000000B4040000E4E1FFFF38000000F1
S31580102A8000440E30448801440C080064C8440D028A
S31580102A901C000000D4040000FCE1FFFF30000000A1
S31580102AA000440E30448801440C08005CC8440D0272
S31580102AB020000000F40400000CE2FFFF7800000004
S31580102AC000440E30448801440C08000264C8440D4A
S31580102AD0020000001C0000001805000060E2FFFFE5
S31580102AE05000000000440E30448801440C08007CDD
S31580102AF0C8440D021C0000003805000090E2FFFF5C
S31580102B004000000000440E30448801440C08006CDC
S31580102B10C8440D021C00000058050000B0E2FFFFFB
S31580102B203800000000440E30448801440C080064CC
S31580102B30C8440D022000000078050000C8E2FFFF9F
S31580102B40A800000000440E30448801440C0800029E
S31580102B5094C8440D02000000200000009C0500006F
S31580102B604CE3FFFF5C00000000440E3044880144B3
S31580102B700C08000248C8440D020000001C0000002A
S31580102B80C005000084E3FFFF3C00000000440E30C7
S31580102B90448801440C080068C8440D021C000000DB
S31580102BA0E0050000A0E3FFFF3400000000440E3073
S31580102BB0448801440C080060C8440D0220000000BF
S31580102BC000060000B4E3FFFF9000000000440E30C2
S31580102BD0448801440C0800027CC8440D02000000A1
S31580102BE0200000002406000020E4FFFF58000000AB
S31580102BF000440E30448801440C08000244C8440D39
S31580102C0002000000240000004806000054E4FFFF84
S31580102C101C01000000440E304881018802440C08D3
S31580102C2000031401C144C8440D02000024000000B2
S31580102C307006000048E5FFFFB400000000440E3027
S31580102C404881018802440C080002A0C144C8440D82
S31580102C50020000002400000098060000D4E5FFFF63
S31580102C60DC00000000440E304881018802440C08C4
S31580102C700002CCC144C8440D0200000028000000A8
S31580102C80C006000088E6FFFF3001000000440E30C9
S31580102C904C810188028903440C0800031801C14441
S31580102CA0C844C9440D02000024000000EC06000050
S31580102CB08CE7FFFFB000000000440E304881018889
S31580102CC002440C0800029CC144C8440D0200000056
S31580102CD0200000001407000014E8FFFF54000000D5
S31580102CE000440E30448801440C08000240C8440D4C
S31580102CF002000000240000003807000044E8FFFFAF
S31580102D007401000000440E304881018802440C088A
S31580102D1000037801C144C8440D020000240000005D
S31580102D206007000090E9FFFF6800000000440E3045
S31580102D304881018802440C08000250C144C8440DE1
S31580102D40020000002400000088070000D0E9FFFF81
S31580102D504C01000000440E204881018802440C0872
S31580102D6000034C01C144C8440D0200002400000039
S31580102D70B0070000F4EAFFFF7801000000440E302F
S31580102D804881018802440C0800037801C144C84474
S31580102D900D02000024000000D807000044ECFFFF5D
S31580102DA07801000000440E304881018802440C08E6
S31580102DB000037801C144C8440D02000024000000BD
S31580102DC00008000094EDFFFF3C02000000440E3026
S31580102DD04881018802440C0800033802C144C84463
S31580102DE00D0200002400000028080000A8EFFFFF55
S31580102DF04801000000440E304881018802440C08C6
S31580102E0000034C01C144C8440D0200002400000098
S31580102E1050080000C8F0FFFF8000000000440E300C
S31580102E204881018802440C0800026CC144C8440DD4
S31580102E3002000000240000007808000020F1FFFF47
S31580102E408000000000440E304881018802440C083E
S31580102E5000026CC144C8440D02000000240000002A
S31580102E60A008000078F1FFFF3401000000440E3006
S31580102E704881018802440C0800033401C144C844C7
S31580102E800D02000020000000C808000084F2FFFF39
S31580102E90C000000000440E20448801440C08000243
S31580102EA0ACC8440D0200000024000000EC080000AD
S31580102EB020F3FFFF9800000000440E20488101880F
S31580102EC002440C08000284C144C8440D020000006C
S31580102ED01C0000001409000090F3FFFFB4000000EE
S31580102EE000440E304881018802440C08000000001E
S31580102EF0180000003409000024F4FFFF340000009D
S31580102F0000440E104C880281010000001000000061
S31580102F10500900003CF4FFFF9800000000000000FC
S31580102F205000000064090000C0F4FFFF800100001B
S31580102F3000440E4048970948960870920494069566
S31580102F4007980A990B81018802890393059A0C9B2D
S31580102F500D02800AC144C844C944D244D344D444DF
S31580102F60D544D644D744D844D944DA44DB440E00F9
S30980102F70440B000078
S30980102F744300000080
S31580102F780000000064321080CC3210803433108008
S31580102F8800000000000000000000000000000000A3
S31580102F980000000000000000000000000000000093
S31580102FA800000000742F1080000000000000000050
S31580102FB80000000000000000000000000000000073
S31580102FC80000000000000000000000000000000063
S31580102FD80000000000000000000000000000000053
S31580102FE80000000000000000000000000000000043
S31580102FF80000000000000000000000000000000033
S315801030080000000000000000000000000000000022
S315801030180000000000000000010000000000000011
S315801030280E33CDAB34126DE6ECDE05000B000000D6
S3158010303800000000000000000000000000000000F2
S3158010304800000000000000000000000000000000E2
S3158010305800000000000000000000000000000000D2
S3158010306800000000000000000000000000000000C2
S315801033A0C07AF204BC33108098341280A025108025
S311801033B001000000782F1080782F10800C
S705801000006A
